:1000000039C152C151C1D5C14FC14EC14DC14CC101
:100010004BC16CC849C124C447C146C1E6C144C1F3
:1000200043C142C141C1BCC6C5C6CEC6D8C6DBC6E7
:10003000DFC6EAC6EFC6FEC605C704C7000020201B
:100040002020202000FF08202020333030007F04B3
:10005000202020363030003F022020313230300066
:100060001F01202032343030008F002020343830FF
:10007000300047002020393630300023002031394D
:10008000323030001100203338343030000B002083
:10009000353736303000050031313532303000012F
:1000A000030C090602030C0B0600030C0B060400EC
:1000B0000B0B0B05000B0B0B03000B0B0B070B0CB7
:1000C0000A00080B0C0B00060B0C0B000B0B0B00B3
:1000D0000B0B0B0B060B202020205620202020206D
:1000E00020202020204100202020205620202020D9
:1000F00020202020202041002020202056202020C9
:100100002020202020202041005253323332202052
:10011000202020202020384E310046616E2073744C
:10012000617274202020202020200046616E207300
:10013000746F702020202020202020005601010113
:100140000101202020204101010101010020202087
:100150002056202020202041202020202000562032
:10016000202020202020202020202020204100208E
:10017000202020202020202020202020202020009F
:10018000202020202020202020202020202020206F
:1001900000001010101000011F001818181800019E
:1001A0001F001C1C1C1C00011F001E1E1E1E000127
:1001B0001F001F1F1F1F00011F0000000000000183
:1001C0001F000C0C040606000000030304181800AE
:1001D000000000031F1800000000181804030300AB
:1001E00000000002050505020000001B121B121290
:1001F000000404150E041F1F001818030404040350
:10020000002020202020202020202020202020200E
:100210002054656D70657261747572652073656ECA
:10022000736F72206661696C7572652C20636865F6
:10023000636B20636F6E6E656374696F6E2E004F23
:1002400056455248454154494E47202D2074686513
:10025000206F757470757420686173206265656EB7
:10026000207377697463686564206F66662E20006A
:100270001030200011241FBECFE5D4E0DEBFCDBF7B
:1002800010E0A0E6B0E0E8E1F2E102C005900D92D6
:10029000A437B107D9F710E0A4E7B0E001C01D9280
:1002A000A539B107E1F721C6ABCE20E0829918C08D
:1002B00082990FC0309194002F5F80E197E20197FF
:1002C000F1F7332321F4839B28C02F3F19F1829B40
:1002D000F3CF80919400882319F481E090E0089591
:1002E000839921C083990FC0309194002F5F80E1E2
:1002F00097E20197F1F7332321F4829B0EC02F3F41
:1003000079F0839BF3CF80919400882361F483E09C
:1003100090E0089582E090E0089585E090E00895EF
:1003200084E090E0089580E090E0089530E0232F8D
:1003300084EF91E00197F1F790B39073E0E7F2E07A
:100340008491981731F02F5FE22FFF27E059FD4F7E
:10035000F7CF80918A00281769F0813021F422308C
:1003600039F4382F05C0882319F4233009F43FEFFE
:1003700020938A00832F992787FD90950895809177
:100380007C008823A9F080918500843718F0A89A12
:100390001092740080918500843650F4809174002E
:1003A0008F5F80937400853618F010927400A898BF
:1003B00008951F920F920FB60F9211248F939F935F
:1003C00080917A008F5F80937A0090917A0080917B
:1003D0006000981719F410927A00369A9F918F91C5
:1003E0000F900FBE0F901F9018951F920F920FB68F
:1003F0000F9211248F939F9384B195B19695879511
:10040000019696958795389B03C08093850002C01E
:100410008093900091E090938D0087B1892787B9F0
:100420009F918F910F900FBE0F901F9018955D9B1D
:10043000FECF8CB908955F9BFECF8CB199270895AC
:10044000979897E087FF02C0969A01C09698979A6E
:100450009798880F915097FFF5CF0895AC98AD9A73
:10046000EFDF81E08A95F1F785B38F7C85BB88EC5F
:100470008A95F1F70895AC9AAD9AE2DF81E08A950A
:10048000F1F785B38F7C85BB88EC8A95F1F70895E9
:100490000F931F93CF93DF938B01880F880F880FE3
:1004A000805CDCDFE80107E0FE018491E4DF0150BD
:1004B000219607FFF9CFDF91CF911F910F910895FA
:1004C00069EB71E081E0E4DF61EB71E082E0E0DFA5
:1004D000089569EF71E081E0DBDF61EF71E082E0B8
:1004E000D7DF61EE71E083E0D3DF69EE71E084E095
:1004F000CFDF0895883010F0885401C08058AEDFF7
:1005000008950F931F93CF93DF93EC01062F18816B
:10051000112349F0802FEEDF812FADDF21960F5F91
:1005200018811123B9F7DF91CF911F910F91089591
:100530000F931F93CF93DF93EC01062FFC011491CF
:10054000112351F0802FD6DF812F95DF21960F5F89
:10055000FE0114911123B1F7DF91CF911F910F91FB
:1005600008959091810081E1989FC001112460E07D
:100570008A529F4FDDDF81E080938D0008951F93A5
:10058000CF93DF9310E0EC01812FB4DF899173DF0B
:100590001F5F1031C8F3DF91CF911F910895AF9283
:1005A000BF92CF92DF92EF92FF920F931F93CF9360
:1005B000DF93CDB7DEB7FC01F62EADB6BEB6C62EC4
:1005C000DD24C60101962DB73EB7281B390B0FB6A7
:1005D000F8943EBF0FBE2DBF0DB71EB70F5F1F4F64
:1005E000EE24E61638F4D80184918D93E394319685
:1005F000EF14D0F3C801C3DFEE24EF14D8F4F601F2
:10060000E00FF11FD8018C91808320E02F1530F48A
:10061000F801818181932F5F2F15D8F327E08FEFA9
:100620009FEF0197F1F7215027FFF9CFC801A7DF0E
:10063000E394E3CF0FB6F894BEBE0FBEADBEDF911C
:10064000CF911F910F91FF90EF90DF90CF90BF90CF
:10065000AF9008956DE381E092E0A1DF82DF08951D
:100660001F93CF93DF9310E0EC01812F43DFFE0156
:10067000849101DF1F5F21961031B8F3DF91CF9194
:100680001F910895282F37E082E18A95F1F720FF26
:100690000BC0AA98A29A82E18A95F1F7A29883E109
:1006A00091E00197F1F70AC0AA98A29A83E191E03C
:1006B0000197F1F7A29882E18A95F1F726953150DA
:1006C00037FFE2CF089520E037E082E18A95F1F725
:1006D000AA98A29A82E18A95F1F7A29882E18A9576
:1006E000F1F726959A99206883E191E00197F1F757
:1006F000315037FFEACF822F9927089520E0AA983A
:10070000A29A8CE796E00197F1F7A29883E191E035
:100710000197F1F79A9B0BC02F5F84E08A95F1F760
:10072000293C18F081E090E008959A99F5CF8CE784
:1007300096E00197F1F7AA9AA29A80E090E00895D6
:100740008CECA0DF84E49EDFBEDF882369F0D6DF77
:1007500080938F008CEC96DF8EEB94DFB4DF809378
:100760007500CCDF80938F0008955F9B03C08CB130
:100770005F99FDCF089590917B0089E0989FF001EB
:100780001124EB5BFF4F259134918AB1877E8AB9A2
:10079000832F992780BD29B9E8DF8AB188618AB99A
:1007A0000895982FFB0120E3DB0182E02D93815017
:1007B00087FFFCCF943630F080818F5F945694365B
:1007C000E0F780839A3030F081818F5F9A509A30C1
:1007D000E0F781838281890F828308951F93CF93ED
:1007E000DF93CDB7DEB723970FB6F894DEBF0FBE09
:1007F000CDBF182FBE016F5F7F4F8695D2DF8A81F4
:1008000016DE8B8114DE10FF02C085E301C080E399
:100810000EDE23960FB6F894DEBF0FBECDBFDF917C
:10082000CF911F910895CF93DF93CDB7DEB7239774
:100830000FB6F894DEBF0FBECDBFBE016F5F7F4F16
:10084000B0DF8981F4DD8A81F2DD8B81F0DD2396D2
:100850000FB6F894DEBF0FBECDBFDF91CF910895E4
:100860001F920F920FB60F9211242F933F934F9325
:100870005F936F937F938F939F93AF93BF93EF9308
:10088000FF938CB199278D349105C1F08E34910579
:100890003CF48B319105C9F18134910511F133C0DC
:1008A00086359105C1F08735910524F48F34910583
:1008B000F1F029C08F369105F1F025C080918500B7
:1008C000B2DF80919000AFDF80917D00B0DD80913C
:1008D000750084DF1AC0AFDD8B3FA8F480938B00D6
:1008E0000CC0A9DD8B3F78F480937F0006C081E0C7
:1008F00080937C0003C010927C0081E080938C0088
:1009000080938D0002C08FE392DDFF91EF91BF9144
:10091000AF919F918F917F916F915F914F913F9197
:100920002F910F900FBE0F901F90189510927C0082
:100930001BBC1ABC19BC18BCA99A809175008739D8
:1009400030F060E38FE392E02ADEFADEF6CF09DED4
:1009500008959091750080917E00981708F0A99AEB
:100960009091750080918000891708F0A998809176
:100970007500803A08F0DADF08951F93CF93C82FEF
:10098000162F80E0B7DD1123B9F467E770E08C2FF4
:1009900008DF80917700803319F480E2809377003C
:1009A0008091770068DD8091780065DD8EE263DDFF
:1009B0008091790060DD06C013E080E25CDD1150BB
:1009C00017FFFBCFCF911F91089586E093DD8091B3
:1009D0008C00882311F082E001C080E24CDD809120
:1009E0007C00882319F120918B00822F99279BBDD1
:1009F0008ABD30917F00832F992799BD88BD809152
:100A00008500821750F480919000831731F483E4BD
:100A100080937D008093880014C096E590937D00BC
:100A200083E480938800909389000DC01BBC1ABC9E
:100A300019BC18BC8FE480937D0083E0809388000C
:100A400084E0809389008091880015DD88E052DD84
:100A50008091890010DDA99B02C085E001C080E281
:100A60000ADD08951F93CF93C82F162F8BE042DD28
:100A7000112381F461E970E08C2F93DE8091910065
:100A8000FADC8EE2F8DC80919200F5DC8091930034
:100A9000F2DC06C013E080E2EEDC115017FFFBCF62
:100AA000CF911F91089590917B00292F33272F5FBD
:100AB0003F4F882311F020E030E0C90153E0880F58
:100AC000991F5A95E1F7820F931F66E0825C9F4F52
:100AD0002FDD0895EF92FF920F931F93CF93DF9333
:100AE000CDB7DEB725970FB6F894DEBF0FBECDBFEA
:100AF000182F062F7E010894E11CF11CD701E1E6B6
:100B0000F0E085E001900D928150E1F7BE016F5F4A
:100B10007F4F812F869545DE8981803331F490E2C5
:100B200099838A81803309F49A8310FF02C085E398
:100B30008D838AE0DFDC002339F090E2F70184E066
:100B40009193815087FFFCCF898195DC8A8193DC6A
:100B50008B8191DC8C818FDC8D818DDC81E08BDC65
:100B600025960FB6F894DEBF0FBECDBFDF91CF91B3
:100B70001F910F91FF90EF9008951F93CF93DF93F4
:100B8000CDB7DEB726970FB6F894DEBF0FBECDBF48
:100B9000AE014F5F5F4FDA01E7E6F0E086E00190DB
:100BA0000D928150E1F7182F809185006AE014D3EF
:100BB000282F8091850010D3953008F02F5F2530C5
:100BC00048F082E0FA01E10FF11D808325501F5F9C
:100BD0002530C0F7222389F0822F992763E0880F00
:100BE000991F6A95E1F787579E4FBC0186E050DC5C
:100BF000FE01E10FF11D86E0818361E0CE010196E7
:100C000080DC26960FB6F894DEBF0FBECDBFDF9115
:100C1000CF911F9108951F93CF93DF93CDB7DEB788
:100C200026970FB6F894DEBF0FBECDBFAE014F5F63
:100C30005F4FDA01E7E6F0E086E001900D92815027
:100C4000E1F7182F809190006AE0C6D2282F80919A
:100C50009000C2D2953008F02F5F253048F082E036
:100C6000FA01E10FF11D808325501F5F2530C0F789
:100C7000222389F0822F992773E0880F991F7A9594
:100C8000E1F787579E4FBC0187E002DCFE01E10FD0
:100C9000F11D87E081836BE0CE01019632DC269660
:100CA0000FB6F894DEBF0FBECDBFDF91CF911F917D
:100CB0000895CF93DF93CDB7DEB725970FB6F8949D
:100CC000DEBF0FBECDBFDE011196EDE6F0E085E0A0
:100CD00001900D928150E1F79091850080919000F4
:100CE000989F9001112487E22031380748F08981CC
:100CF0008F5F2051374297E220313907C8F7898347
:100D000083E0283E380748F08A818F5F285E3340B1
:100D100093E0283E3907C8F78A832436310540F02E
:100D20008B818F5F2456304024363105D0F78B837A
:100D30002A30310540F08C818F5F2A5030402A30B4
:100D40003105D0F78C838D81820F8D83898180332B
:100D500011F480E2898380E0CDDB89818CDB8A819C
:100D60008ADB8EE288DB8B8186DB8C8184DB8D8164
:100D700082DB87E580DB25960FB6F894DEBF0FBED9
:100D8000CDBFDF91CF910895809181009927AA2747
:100D9000BB27FC010B9708F05AC0ED5EFF4F09948A
:100DA00060E080918500E9DD10DE60E080919000D8
:100DB00059DE2DC06091860080918B00DEDD05DE5E
:100DC00060E08091900009C060E080918500D5DDF1
:100DD000FCDD6091860080917F0044DE0EC0809132
:100DE000860061DE0AC06091860080917E0004C0AA
:100DF00060918600809180006DDE8091870085364D
:100E000030F11092810014C0B8DEDFDD04DF1092F3
:100E1000870008956091860080918B00AEDDD5DD5E
:100E2000FADE80918700853690F086E0809381001D
:100E300098DB0895A2DEC9DD6091860080917F0075
:100E400011DEEFCF36DF60E08091750043DE08955C
:100E500020E090B39073E0E7F2E08491981731F0CE
:100E60002F5FE22FFF27E059FD4FF7CF20938A0035
:100E700081E089BF85E083BF80EA8FBD81E18EBDBF
:100E800080E091E097BD86BD89B7806889BF8BE619
:100E900083BD8FE085BD86E487B98EE886B980E89A
:100EA0008AB9A0E0B0E0A4D1802D80938B00A1E0AE
:100EB000B0E09ED1802D80937F00A2E0B0E098D179
:100EC000802D80937B00A3E0B0E092D1802D8093B1
:100ED0007E00A4E0B0E08CD1802D80938000F9DA10
:100EE00040DB52DF48DC41DC0895CFE5D4E0DEBFD3
:100EF000CDBF26DCADDF24DC7894D7D9982F809342
:100F00009400882309F45DC08091810005E0809FF2
:100F1000F0011124E90FF11DE256FF4F1491C12F8A
:100F2000DD27C630D10509F440C0C730D1051CF417
:100F3000209789F041C0CA30D10509F43BC02C97F5
:100F400009F03AC080917C0091E0892780937C0071
:100F500090938D0036C0BDDA00936000109381003D
:100F600000DB80919400813051F480918B00DE0190
:100F7000082E46D1A1E0B0E080917F0013C08230FE
:100F800001F5F9DBA3E0B0E080917E00082E38D1B6
:100F9000A4E0B0E080918000082E32D1A2E0B0E061
:100FA00080917B00082E2CD10CC08ADA81E08093DE
:100FB000600004C08EDA02C01B3019F0109381006B
:100FC000D0DAB4D9482F882309F497CF109287003C
:100FD00081E080938D008091810099278430910574
:100FE00009F453C0853091054CF48230910521F10C
:100FF00083309105CCF5019771F07FCF8730910553
:1010000051F08830910524F4059709F454C075CF48
:10101000089791F072CF80918B00882321F447FFCD
:1010200007C0482F05C08A3F18F014160CF440E0A2
:10103000840F80938B0010C080917F00882321F45F
:1010400047FF07C0482F05C08A3F18F014160CF45C
:1010500040E0840F80937F0088EF809376001092A9
:10106000860010928C0049CF80917B00882321F468
:1010700047FF07C0482F05C0893018F014160CF43C
:1010800040E0840F80937B002BC050917E00252F81
:10109000332780918000992703962817390714F485
:1010A00047FD40E0503A18F014160CF440E0540F9D
:1010B00050937E0015C0509180005D3310F447FDC1
:1010C00040E0252F332780917E00992703978217D0
:1010D00093071CF414160CF440E0540F5093800056
:1010E00088EF809376001092860007CF1F920F92B0
:1010F0000FB60F9211242F933F934F935F936F93EB
:101100007F938F939F93AF93BF93EF93FF9337D9C1
:10111000809184008F5F809384008091840084306C
:10112000E8F0A99B1BC01092840080918E008F5F15
:1011300080938E0080918E00843010F010928E008B
:1011400080918E009927880F991F880F991F880F0B
:10115000991F8F539E4FBC0185E09AD980917600EC
:101160008F5F80937600809176008930ECF010924A
:101170007600E6DAEEDB80918F00813051F48091C9
:101180008200882309F466DA809182008F5F809361
:1011900082008091860091E089278093860080916B
:1011A0008700890F8093870080918D00813019F42A
:1011B00010928D00E9DDFF91EF91BF91AF919F916A
:1011C0008F917F916F915F914F913F912F910F90F0
:1011D0000FBE0F901F901895991B79E004C0991FBE
:1011E000961708F0961B881F7A95C9F78095089581
:1011F000E199FECFBFBBAEBBE09A11960DB2089548
:10120000E199FECFBFBBAEBB0DBA11960FB6F894F5
:08121000E29AE19A0FBE089575
:10121800053030302E30000101010101003030303E
:041228003030000062
:00000001FF
