:020000020000FC
:101C000004E00EBF0FE50DBF06E007BB08E308BB0D
:101C10000BE304BB04E005BB02EC01BB04E302BB25
:101C200008E10AB906E800BD002700BD03E209B9D2
:101C300008E3ECD0E3D008E3E9D0D2D00CE0E6D062
:101C4000CFD001E0E3D0CCD006E0E0D0C9D0C8D0FE
:101C50008299D6C1FEE1ECE700D19CD08B31E9F34B
:101C6000803511F4B0D0F9CF813619F499E596D0CA
:101C7000F4CF813441F48ED0D82F8CD0C82FCC0F24
:101C8000DD1FA1D0EACF833621F484D0482F9BD02A
:101C9000E4CF833449F4FE017DD0582F0A0111E0CE
:101CA00081D0229690D0D9CF8D3631F4FE0115E047
:101CB00079D083D088D0D1CF823549F478D0FE0155
:101CC000459195916BD0EF01942F68D0C6CF8436A3
:101CD00049F46DD07BD0DFBBCEBB2196E09A9DB39B
:101CE0005DD0BBCF843459F471D0DFBBCEBB52D0B2
:101CF0008DBBE29AE19A219669D065D0AECF853648
:101D000071F4DD27CC276627FE0113E04BD055D0B8
:101D1000A096A09663956036B8F355D09ECF8C34CC
:101D200011F451D09ACF843519F434D04CD095CFDA
:101D3000833739F49EE132D093E930D097E02ED04A
:101D40008CCF843729F497E729D0992727D085CFDE
:101D5000833571F491E422D096E520D092E51ED02F
:101D600092E41CD09FE41AD019D094E517D075CF17
:101D7000803719F493E512D070CF883719F40AD060
:101D800022D06BCF893719F405D01DD066CF9FE3E1
:101D900005D063CF5F9BFECF8CB108955D9BFECFD6
:101DA0009CB9089504D012D017BFE89508950F93F9
:101DB00007B700FDFDCF0F9108951F93F8DF11E1E4
:101DC000F1DF1F9108959DE0E9DF0895E199FECFCD
:101DD00008951F931FEFA8951A95E9F71F9108958D
:101DE0000F931F930FEF10E9A8950A95E9F7A895AF
:101DF0000FEF1A95C9F71F910F9108952F932AE0BD
:101E0000A895EEDF2A95E1F72F910895AC98AD9A49
:101E100016D00000AD98DDDF0895AC9AAD9A0FD0D2
:101E20000000AD98D6DF08950F93383010F400E825
:101E300001C008EB030FEADFCCDF0F9108956F9329
:101E400068E09798001F10F0969801C0969A979AAC
:101E500097986A95B9F76F9108950F936F936627D6
:101E60003327E2DFA8950591D8DF6F3020F4639522
:101E70003395DADFF7CF6F910F910895426F6F744A
:0C1E8000204C6F61646572204D6F64653A
:00000001FF
