:1000000095C1AEC1ADC1ACC1ABC1AAC1A9C1A8C1A6
:10001000A7C1B8C8A5C155C2A3C1A2C128C2A0C169
:100020009FC19EC19DC119C722C72BC735C738C7FD
:100030003CC747C74CC75BC762C761C70000000425
:100040001002000900000002080100040000000185
:10005000040010020000000002000801000000007F
:100060000100041000000000001002080000001051
:10007000000801040000000800040012000002044F
:100080000E151F0E0004040E151F1F0E08040E157A
:100090001F110E0010080E151F1F0E0008040E156C
:1000A0001F110E0004040E151F1F0E0002040E1572
:1000B0001F110E000001020E151F1F0E0307060E72
:1000C0000F1C1C001B1D0D0E1E0707000011111B2D
:1000D0001B0E0E041B16160F0E1C1C001E07071EFF
:1000E000180C0C0006070606010203040570737560
:1000F00006060706000020202020202000FF082000
:100100002020333030007F04202020363030003F64
:1001100002202031323030001F01202032343030B4
:10012000008F00202034383030004700202039363E
:1001300030300023002031393230300011002033BC
:1001400038343030000B00203537363030000500B1
:100150003131353230300001030C090602030C0B3B
:100160000600030C0B0604000B0B0B05000B0B0B1E
:1001700003000B0B0B070B0C0A00080B0C0B000603
:100180000B0C0B000B0B0B000B0B0B0B060B2020AF
:100190002020562020202020202020202041002028
:1001A0002020205620202020202020202020410018
:1001B00020202020562020202020202020202041E8
:1001C0000052533233322020202020202020384E6D
:1001D000310046616E2073746172742020202020EB
:1001E00020200046616E2073746F70202020202034
:1001F0002020200056010101010120202020410182
:100200000101010100202020205620202020204133
:1002100020202020200056202020202020202020C8
:1002200020202020204100202020202020202020CD
:1002300020202020202020002020202020202020DE
:10024000202020202020202000001010101000016D
:100250001F001818181800011F001C1C1C1C00018E
:100260001F001E1E1E1E00011F001F1F1F1F00015A
:100270001F000000000000011F000C0C0406060017
:100280000000030304181800000000031F180000FA
:100290000000181804030300000000020505050211
:1002A0000000001B121B1212000404150E041F1F75
:1002B000001818030404040300202020202020201C
:1002C00020202020202020202054656D7065726140
:1002D000747572652073656E736F72206661696CE8
:1002E0007572652C20636865636B20636F6E6E6545
:1002F0006374696F6E2E004F56455248454154490C
:100300004E47202D20746865206F757470757420B9
:10031000686173206265656E2073776974636865D0
:1003200064206F66662E20001030200011241FBE4E
:10033000CFE5D4E0DEBFCDBF10E0A0E6B0E0EAEC50
:10034000F2E102C005900D92A437B107D9F710E091
:10035000A4E7B0E001C01D92A539B107E1F717C6C7
:100360004FCE20E0829918C082990FC0309194003E
:100370002F5F80E197E20197F1F7332321F4839B0C
:1003800028C02F3F19F1829BF3CF809194008823DE
:1003900019F481E090E00895839921C083990FC0FA
:1003A000309194002F5F80E197E20197F1F73323BA
:1003B00021F4829B0EC02F3F79F0839BF3CF809175
:1003C0009400882361F483E090E0089582E090E057
:1003D000089585E090E0089584E090E0089580E03D
:1003E00090E00895089530E0232F84EF91E0019785
:1003F000F1F790B39073E8E2F3E08491981731F04D
:100400002F5FE22FFF27E85DFC4FF7CF80918A0036
:10041000281769F0813021F4223039F4382F05C0D3
:10042000882319F4233009F43FEF20938A00832FA7
:10043000992787FD9095089580917C008823A9F0E5
:1004400080918500843718F0A89A109274008091EA
:100450008500843650F4809174008F5F809374001F
:10046000853618F010927400A898089508951F9288
:100470000F920FB60F9211248F939F9394B185B171
:100480008F3F11F097FD8F5F389B03C080938500ED
:1004900002C08093900091E090938D0087B18927EE
:1004A00087B99F918F910F900FBE0F901F90189555
:1004B0005F9BFECF8CB1992708955D9BFECF8CB9D1
:1004C00008951F920F920FB60F9211242F933F930E
:1004D0004F935F936F937F938F939F93AF93BF934C
:1004E000EF93FF938CB1992781369105D1F1823634
:1004F00091058CF48134910541F18234910524F405
:100500004B9709F440C03DC08F34910581F1863589
:10051000910591F036C08337910581F184379105BB
:1005200024F48F36910539F12CC084379105E1F020
:100530008637910539F025C0BBDF8B3F10F58093DE
:100540008B0008C0809185001DC0B2DF8B3FC8F4CE
:1005500080937F0081E080938C0080938D008DE0FC
:1005600011C0809190000EC0809175000BC081E099
:1005700080937C00F0CF10927C00ECCF80917D00C6
:1005800001C08FE39ADFFF91EF91BF91AF919F91EF
:100590008F917F916F915F914F913F912F910F902C
:1005A0000FBE0F901F901895979897E087FF02C095
:1005B000969A01C09698979A9798880F915097FFAE
:1005C000F5CF0895AC98AD9AEFDF81E08A95F1F709
:1005D00085B38F7C85BB88EC8A95F1F70895AC9A3A
:1005E000AD9AE2DF81E08A95F1F785B38F7C85BB18
:1005F00088EC8A95F1F708950F931F93CF93DF93BB
:100600008B01880F880F880F805CDCDFE80107E032
:10061000FE018491E4DF0150219607FFF9CFDF91BD
:10062000CF911F910F91089561E772E081E0E4DFBF
:1006300069E672E082E0E0DF089561EB72E081E05C
:10064000DBDF69EA72E082E0D7DF69E972E083E02C
:10065000D3DF61EA72E084E0CFDF0895883010F0E4
:10066000885401C08058AEDF08950F931F93CF9335
:10067000DF93EC01062FFC011491112351F0802F20
:10068000EDDF812FACDF21960F5FFE011491112366
:10069000B1F7DF91CF911F910F9108959091810053
:1006A00081E1989FC001112460E082579E4FDDDFF9
:1006B00081E080938D000895EF92FF921F93CF9376
:1006C000DF9310E0812F992723E0880F991F2A9547
:1006D000E1F784549F4F1F5FBC01812F8DDF1530E0
:1006E00088F360E084EE90E0C0DF829B27C0839BAC
:1006F00025C010E08CE7E82E80E0F82ECCE3D0E0B7
:10070000BE0186E079DFB70187E076DF20E0829BDB
:1007100009C0839B07C08FEF9FEF0197F1F72F5F11
:100720002530A8F31F5F289688E090E0E80EF91EB8
:10073000183030F3829B02C08399DBCF80E197E2CF
:100740000197F1F7829BFECF839BFCCFDF91CF9186
:100750001F91FF90EF9008950F931F93CF93DF9316
:10076000EC01062F1881112349F0802F77DF812FAC
:1007700036DF21960F5F18811123B9F7DF91CF91F2
:100780001F910F9108951F93CF93DF9310E0EC0119
:10079000812F64DF899123DF1F5F1031C8F3DF9160
:1007A000CF911F910895AF92BF92CF92DF92EF92B7
:1007B000FF920F931F93CF93DF93CDB7DEB7FC016A
:1007C000062FADB6BEB6C62EDD24C60101962DB7E6
:1007D0003EB7281B390B0FB6F8943EBF0FBE2DBF96
:1007E000EDB6FEB60894E11CF11C662341F0D7017A
:1007F000162F84918D93115031961123D1F7C70193
:10080000C2DF10E01017D0F4F601EE0DFF1DD70186
:100810008C918083002331F0F701202F8181819317
:100820002150E1F727E08FEF9FEF0197F1F721507B
:1008300027FFF9CFC701A7DF1F5FE4CF0FB6F894FA
:10084000BEBE0FBEADBEDF91CF911F910F91FF9045
:10085000EF90DF90CF90BF90AF9008956DE389EB5C
:1008600092E0A1DF1BDF08951F93CF93DF9310E089
:10087000EC01812FF3DEFE018491B1DE1F5F219632
:100880001031B8F3DF91CF911F910895282F37E0F1
:1008900082E18A95F1F720FF0BC0AA98A29A82E123
:1008A0008A95F1F7A29883E191E00197F1F70AC0E8
:1008B000AA98A29A83E191E00197F1F7A29882E1C8
:1008C0008A95F1F72695315037FFE2CF089520E061
:1008D00037E082E18A95F1F7AA98A29A82E18A9597
:1008E000F1F7A29882E18A95F1F726959A99206806
:1008F00083E191E00197F1F7315037FFEACF822F82
:100900009927089520E0AA98A29A8CE796E001978B
:10091000F1F7A29883E191E00197F1F79A9B0BC060
:100920002F5F84E08A95F1F7293C18F081E090E090
:1009300008959A99F5CF8CE796E00197F1F7AA9A76
:10094000A29A80E090E0089508958CEC9FDF84E403
:100950009DDFBDDF882369F0D5DF80938F008CECAD
:1009600095DF8EEB93DFB3DF80937500CBDF809351
:100970008F00089508955F9B03C08CB15F99FDCFF0
:10098000089590917B0089E0989FF0011124E35035
:10099000FF4F259134918AB1877E8AB9832F992799
:1009A00080BD29B9E8DF8AB188618AB90895982F96
:1009B000FB0120E3DB0182E02D93815087FFFCCF18
:1009C000943630F080818F5F94569436E0F78083C0
:1009D0009A3030F081818F5F9A509A30E0F78183AE
:1009E0008281890F8283089510927C001BBC1ABCFF
:1009F00019BC18BCA99A80917500873930F060E362
:100A000087EF92E0D0DEA1DFF6CF48DE0895909127
:100A1000750080917E00981708F0A99A9091750052
:100A200080918000891708F0A99880917500803A1C
:100A300008F0DADF089508951F93CF93C82F162F7B
:100A400080E00CDE1123B9F467E770E08C2FAFDF94
:100A500080917700803319F480E280937700809151
:100A60007700BDDD80917800BADD8EE2B8DD80913F
:100A70007900B5DD06C013E080E2B1DD115017FF4B
:100A8000FBCFCF911F91089586E0E8DD80918C0027
:100A9000882311F082E001C080E2A1DD80917C001A
:100AA000882319F120918B00822F99279BBD8ABD45
:100AB00030917F00832F992799BD88BD8091850053
:100AC000821750F480919000831731F483E480936F
:100AD0007D008093880014C096E590937D0083E4A8
:100AE00080938800909389000DC01BBC1ABC19BC70
:100AF00018BC8FE480937D0083E08093880084E0BD
:100B000080938900809188006ADD88E0A7DD80916C
:100B1000890065DDA99B02C085E001C080E25FDD40
:100B2000089508951F93CF93C82F162F8BE096DD5D
:100B3000112381F461E970E08C2F39DF80919100FD
:100B40004EDD8EE24CDD8091920049DD8091930074
:100B500046DD06C013E080E242DD115017FFFBCFF7
:100B6000CF911F91089590917B00292F33272F5FFC
:100B70003F4F882311F020E030E0C90153E0880F97
:100B8000991F5A95E1F7820F931F66E08A509F4F95
:100B90006CDD0895EF92FF920F931F93CF93DF9335
:100BA000CDB7DEB725970FB6F894DEBF0FBECDBF29
:100BB000F82EE62E85E08E010F5F1F4FD801E1E68B
:100BC000F0E001900D928A95E1F7B8018F2D86959E
:100BD000EEDE8981803331F490E299838A8180331B
:100BE00009F49A83F0FE02C085E38D838AE036DD46
:100BF000EE2039F090E2F80184E09193815087FF74
:100C0000FCCF8981ECDC8A81EADC8B81E8DC8C8199
:100C1000E6DC8D81E4DC81E0E2DC25960FB6F89419
:100C2000DEBF0FBECDBFDF91CF911F910F91FF901F
:100C3000EF9008951F93CF93DF93CDB7DEB726973C
:100C40000FB6F894DEBF0FBECDBF86E0AE014F5F9A
:100C50005F4FDA01E7E6F0E001900D928A95E1F747
:100C600010E0809185006AE024D3282F80918500D0
:100C700020D3953008F02F5F253048F082E0FA014C
:100C8000E10FF11D808325501F5F2530C0F722231F
:100C900089F0822F992763E0880F991F6A95E1F701
:100CA0008F5B9D4FBC0186E0A7DCFE01E10FF11DCB
:100CB00086E0818361E0CE0101964EDD26960FB677
:100CC000F894DEBF0FBECDBFDF91CF911F91089585
:100CD0001F93CF93DF93CDB7DEB726970FB6F89467
:100CE000DEBF0FBECDBF86E0AE014F5F5F4FDA01C2
:100CF000E7E6F0E001900D928A95E1F710E080912F
:100D000090006AE0D6D2282F80919000D2D2953000
:100D100008F02F5F253048F082E0FA01E10FF11D65
:100D2000808325501F5F2530C0F7222389F0822F52
:100D3000992773E0880F991F7A95E1F78F5B9D4F94
:100D4000BC0187E059DCFE01E10FF11D87E08183E2
:100D50006BE0CE01019600DD26960FB6F894DEBF5B
:100D60000FBECDBFDF91CF911F910895CF93DF9339
:100D7000CDB7DEB725970FB6F894DEBF0FBECDBF57
:100D800085E0DE011196EDE6F0E001900D928A9586
:100D9000E1F79091850080919000989F9001112437
:100DA00087E22031380748F089818F5F2051374230
:100DB00097E220313907C8F7898383E0283E380756
:100DC00048F08A818F5F285E334093E0283E3907E0
:100DD000C8F78A832436310540F08B818F5F245613
:100DE000304024363105D0F78B832A30310540F06E
:100DF0008C818F5F2A5030402A303105D0F78C83A8
:100E00008D81820F8D838981803311F480E2898303
:100E100080E024DC8981E3DB8A81E1DB8EE2DFDBB9
:100E20008B81DDDB8C81DBDB8D81D9DB87E5D7DB5B
:100E300025960FB6F894DEBF0FBECDBFDF91CF91E0
:100E40000895809181009927AA27BB27FC010B9761
:100E500008F05AC0ED5EFF4F099460E08091850074
:100E6000EBDD12DE60E0809190005CDE2DC06091D1
:100E7000860080918B00E0DD07DE60E080919000CD
:100E800009C060E080918500D7DDFEDD60918600BD
:100E900080917F0047DE0EC08091860064DE0AC02C
:100EA0006091860080917E0004C0609186008091F0
:100EB000800070DE80918700853630F110928100CD
:100EC00014C0B8DEE1DD04DF109287000895609160
:100ED000860080918B00B0DDD7DDFADE809187003F
:100EE000853690F086E080938100D8DB0895A2DEFD
:100EF000CBDD6091860080917F0014DEEFCF36DF7E
:100F000060E08091750046DE0895089520E090B37A
:100F10009073E8E2F3E08491981731F02F5FE22FAD
:100F2000FF27E85DFC4FF7CF20938A0081E089BF5F
:100F300085E083BF80EA8FBD81E18EBD80E091E0D6
:100F400097BD86BD86E687B98EE886B980E88AB9FE
:100F500080E090E09BD180938B0081E090E096D17F
:100F600080937F0082E090E091D180937B0083E0CA
:100F700090E08CD180937E0084E090E087D18093D4
:100F800080005BDB8BDB5DDFFCDCF5DC0895CFE50F
:100F9000D4E0DEBFCDBFD9DC8FDBB8DFD6DC789400
:100FA000E0D9282F80939400882309F456C09091AB
:100FB000810085E0989FF0011124E20FF11DEA5AAB
:100FC000FE4F1491C12FDD27C630D105D9F1C730AE
:100FD000D1051CF4209779F03BC0CA30D105B1F19E
:100FE0002C97B1F580917C0091E0892780937C005B
:100FF00090938D0032C021DB82E0809360001093DB
:1010000081004CDB80919400813049F460918B0029
:10101000CE0144D160917F0081E090E011C0823028
:10102000E1F4AFDC60917E0083E090E037D1609125
:10103000800084E090E032D160917B0082E090E01B
:101040002DD10BC0F1DA1092600004C0F6DA02C0B4
:101050001B3019F01093810021DBC5D9482F88235C
:1010600009F49ECF1092870081E080938D008091DB
:10107000810099278430910509F453C0853091058A
:101080004CF48230910521F183309105CCF5019724
:1010900071F086CF8730910551F08830910524F4A6
:1010A000059709F454C07CCF089791F079CF8091CF
:1010B0008B00882321F447FF07C0482F05C08A3FD3
:1010C00018F014160CF440E0840F80938B0010C0CD
:1010D00080917F00882321F447FF07C0482F05C077
:1010E0008A3F18F014160CF440E0840F80937F00C0
:1010F00088EF809376001092860010928C0050CF7B
:1011000080917B00882321F447FF07C0482F05C04A
:10111000893018F014160CF440E0840F80937B00A3
:101120002BC050917E00252F332780918000992776
:1011300003962817390714F447FD40E0503A18F099
:1011400014160CF440E0540F50937E0015C05091DB
:1011500080005D3310F447FD40E0252F3327809158
:101160007E0099270397821793071CF414160CF43A
:1011700040E0540F5093800088EF809376001092E7
:1011800086000ECF1F920F920FB60F9211242F934D
:101190003F934F935F936F937F938F939F93AF93FF
:1011A000BF93EF93FF9348D980917A008F5F80932C
:1011B0007A0090917A0080916000891718F410925B
:1011C0007A00369A809184008F5F809384008091AA
:1011D00084008430E8F0A99B1BC0109284008091A9
:1011E0008E008F5F80938E0080918E00843010F08F
:1011F00010928E0080918E009927880F991F880F7A
:10120000991F880F991F87589D4FBC0185E0F4D91D
:10121000809176008F5F8093760080917600893090
:10122000ECF01092760091DBF2DB80918F00813040
:1012300051F480918200882309F410DB80918200B0
:101240008F5F809382008091860091E08927809350
:10125000860080918700890F8093870080918D00A0
:10126000813019F410928D00ECDDFF91EF91BF9168
:10127000AF919F918F917F916F915F914F913F912E
:101280002F910F900FBE0F901F901895E199FECFF0
:101290009FBB8EBBE09A99278DB30895E199FECF4D
:1012A0009FBB8EBB6DBB0FB6F894E29AE19A0FBE5E
:1012B0000895991B79E004C0991F961708F0961BB2
:0A12C000881F7A95C9F780950895FC
:1012CA00023030302E30000101010101003030308F
:0412DA0030300000B0
:00000001FF
